S00B0000446F416E2E73333787
S214012000C00A0020393B0100F5300300F53003001B
S2140120104D460300F5300300F5300300F5300300AC
S214012020F5300300F5300300F5300300F53003000A
S214012030F530030018F2030059480300F530030099
S214012040F5300300F5300300F5300300F5300300EA
S214012050F5300300F5300300F5300300F5300300DA
S214012060F5300300F5300300C58D0100B1350100E0
S214012070992F0300F5300300F5300300F530030017
S214012080F5300300F5300300F5300300F5300300AA
S214012090F5300300FD420100F5300300F530030082
S2140120A0F5300300F5300300F5300300F53003008A
S2140120B0F5300300F5300300F5300300810F03000F
S2140120C099D5030095D5030015070300A5D5030090
S2140120D09DD50300450F0300A1D5030079EC02004E
S2140120E0C10F0300F5300300F5300300F53003009F
S2140120F0F5300300F5300300F5300300F53003003A
S214012100F5300300F5300300F5300300F530030029
S214012110F5300300F5300300F5300300F530030019
S214012120F5300300F5300300F5300300F530030009
S208012130F53003007D
S214012134F0B5114A114C124E00F00105E3695F0730
S21401214413D40DB9334213D103EA00078F4207D1E2
S2140121540B4A1A40002A0CBF00206FF00100F0BDA4
S214012164013AEBD16FF00200F9E74FF0FF30F6E7E2
S2140121746FF00100F3E700BF80969800000003505B
S214012184020001000B4B70B5D96911F480310DD1F1
S21401219401244FF48072084E084DF46020462C64E6
S2140121A41A61FFF7C5FF3464EC6070BD6FF001007F
S2140121B4FBE700BF0000035000100350002003504B
S2140121C438B541F6713301220C4C0021E569E3630D
S2140121D40B4B05F48035DA6002236061212023610C
S2140121E4FFF7A6FF10B92120FFF7A2FF0122054B36
S2140121F4DA600DB10023E36338BD00BF000003506D
S214012204001003500020035070B5134C6061E3695D
S2140122145B071ED40E4656F8043B8D18A361AE42E6
S2140122240BD10423002121202361FFF781FF58B934
S214012234BDE870402120FFF77BBF08210846FFF761
S21401224477FF10B10423236170BD56F8043BA361E4
S214012254E5E74FF0FF30F7E7000003502DE9F843B8
S214012264154641F67132164B8946DF69DA63012257
S214012274064603F58053DFF8508007F48037DA60AA
S21401228455B9284601220F4BDA601FB10022A3F587
S2140122940053DA63BDE8F88306F5005404EA08043B
S2140122A4A41BAC4228BF2C46494622463046FFF7BB
S2140122B4ABFF0028E6D12644A1442D1BE0E700BF6E
S2140122C4000003500020035000E0FFFF0000000060
S2140122E0013800D0FCE77047002370B5404C054626
S2140122F08AB0E36318B1008823600DF00BF83D48FF
S2140123002AF080FC3C4E3D4B304633603C4B7360BC
S21401231026F08CF80021304618F028F932A3D3E9CC
S2140123200023A062C4E9062326F08BF8D4E906232D
S21401233019431043C4E90601CDE900014FF0FF330C
S2140123404FF0FF32A06A2AF0B1FC02224FF0FF31B3
S214012350A06A2AF0B0FC01200CF038FC4FF40073A0
S21401236000222849A06A2AF0F7FCB0F5007F38D190
S21401237000239422CDE9073309933C23CDE90332A8
S21401238005939623A06A03A9069318F0D7F935B3E7
S214012390287C0DF05FF80546F0B9A06A2AF0B8FD72
S2140123A00DF006F80CF0F4FB20B14FF4807000211C
S2140123B009F07CFC0CF0FCFB20B14FF4006000211E
S2140123C009F074FC26F063F9012018F025F90E4A8D
S2140123D00E49A06A26F028F828460AB070BDFF20EC
S2140123E0D7E70725F8E700BF0DD501552000000007
S2140123F0300B0020690345EC2C1E002051EA010039
S2140124003C1E00202C1C0020D183030011840300F5
S2140124100348044B834202D0034B03B1184770476D
S214012420783300207833002000000000064B07496F
S214012430C91A891048BF0131491003D0044B0BB1AA
S21401244001481847704700BF7833002078330020D2
S2140124500000000010B5064C237843B9FFF7D8FFFB
S214012460044B13B10448AFF300800123237010BD61
S2140124704426002000000000F021040008B5054BAA
S2140124801BB105490548AFF30080BDE80840FFF7DA
S214012490CDBF00BF00000000980D0020F021040011
S2140124A0A3F5803A704700BF174B002B08BF134BAC
S2140124B09D46FFF7F5FF00218B460F461348144A49
S2140124C0121A2BF010F90E4B002B00D098470D4B2B
S2140124D0002B00D098470020002104000D000D4875
S2140124E0002802D00C48AFF300801FF015F9200039
S2140124F0290020F0E6FC1EF021FF00BF00000800C6
S2140125000000000000000000C00A0020C00A0020F1
S214012510802F0020000000000000000007B50D4BD2
S2140125200D4A1B780D4901930D4B0E481B780093FD
S2140125300D4B12781B78097800F024FB20F077FD0C
S21401254020F076FD094B0A49186803B05DF804EBE4
S21401255021F00CBE63260020662600204E330020A4
S214012560642600204526002065260020480F00200E
S21401257088E60300012337B517490093174A00235D
S2140125800988174801F0BAF9054610B3154C1649E3
S214012590206821F0EBFD1549206821F0E7FD20F0C9
S2140125A046FD20F045FD124B124A009312494C237A
S2140125B0206821F0DBFD11492B46114A206821F0E5
S2140125C0D5FD284601F03EF90E49206821F0CEFDE2
S2140125D0FEE703B030BD00BFC83200201D25010054
S2140125E0B00D0020480F0020A1E60300A3E603007B
S2140125F031E70300A8E60300B1E60300C0E60300E6
S214012600BDE60300D5E6030070B50368A74A23F4C8
S2140126107F4323F0070393428AB005D0A44A93422E
S21401262000F0EE800AB070BD0DF1170106A810F09B
S2140126307FFDA04C054608B39F49206821F096FD12
S2140126409E49206821F092FD20F0F1FC20F0F0FC7C
S2140126509B4B9C4A00939C497023206821F086FD81
S2140126609A492B469A4A206821F080FD284601F0B7
S214012670E9F89849206821F079FDFEE7BDF81C309D
S21401268001465BBAADF820309DF81B3008228DF864
S2140126902230FF238DF82330FE238DF824309DF859
S2140126A01A3018208DF82530BDF818305BBAADF811
S2140126B0263008AB10F00EFD054608B37E492068AB
S2140126C021F054FD7D49206821F050FD20F0AFFC3B
S2140126D020F0AEFC7A4B7B4A00937B49802320682E
S2140126E021F044FD79492B46794A206821F03EFDC8
S2140126F0284601F0A7F87749206821F037FDFEE764
S214012700754E304610F048FC054608B36A49206805
S21401271021F02CFD6949206821F028FD20F087FC76
S21401272020F086FC664B674A00936749852320683C
S21401273021F01CFD65492B46654A206821F016FDEF
S214012740284601F07FF86349206821F00FFDFEE777
S2140127504FF4C862009003461146307810F034FCFE
S214012760054608B35449206821F000FD5349206806
S21401277021F0FCFC20F05BFC20F05AFC504B514A47
S214012780009351498E23206821F0F0FC4F492B46D7
S2140127904F4A206821F0EAFC284601F053F84D49DB
S2140127A0206821F0E3FCFEE70721307810F02EFCCC
S2140127B04A4B40F2FF220393494B06211B784948B6
S2140127C00293494B1B780193484B1B780093484B67
S2140127D01B7820F0B0F820F02AFC20F029FC4549AF
S2140127E0206821F0C3FC31783E4800F065F920F0FE
S2140127F01EFC20F01DFC4049206821F0B7FC11E7C3
S214012800354C0221207810F02BFC054610B3294CDC
S2140128102949206821F0AAFC2849206821F0A6FC55
S21401282020F005FC20F004FC254B264A009326499F
S214012830A923206821F09AFC24492B46244A2068C3
S21401284021F094FC284600F0FDFF2249206821F083
S2140128508DFCFEE70221207810F016FC05460028C4
S2140128603FF4E0AE134C1449206821F07FFC134975
S214012870206821F07BFC20F0DAFB20F0D9FB104B1E
S214012880104A00931049AE23206821F06FFC0F49CF
S2140128902B460F4A206821F069FC284600F0D2FF3B
S2140128A00C49206821F062FCFEE700BFA000010091
S2140128B0A0000601480F0020A1E60300A3E60300DE
S2140128C022E70300A8E60300B1E60300C0E6030022
S2140128D0BDE60300D5E603004E330020E6E603001E
S2140128E06326002045260020642600206526002059
S2140128F066260020F0E603000CE70300102170B501
S214012900052501241B4B8CB01B780DEB01000093B1
S214012910194B1A4A1B781EF07BFE194B194E1B7871
S21401292010210093184B194A1B7808A81EF070FE58
S214012930304620F0F0F8234600223046CDE9015417
S2140129401349009520F05EFA234604A90222304678
S214012950CDE90154009520F055FA2346042208A932
S2140129603046CDE90154009520F04CFA00F050FABB
S2140129700CB070BD63260020642600203AE70300F1
S21401298065260020E80D00206626002048E70300A3
S21401299056E7030007B50121084620F016F8012284
S2140129A06846114620F078F89DF800200B4B1A7007
S2140129B09DF801200A4B1A709DF80220094B1A70E7
S2140129C09DF80320084B1A709DF80420074B1A70D7
S2140129D003B05DF804EBFFF791BF00BF6626002049
S2140129E0652600206426002063260020622600203B
S2140129F037B5234C20F031FB002000F0E1F92046EA
S214012A0000F046FA00256FF07F432046C4E9013501
S214012A1020F081F81B49204620F0E1F9FFF76EFF10
S214012A20012319490093194A2B460988184800F0D2
S214012A3065FF054610B3174C1749206821F096FB31
S214012A401649206821F092FB20F0F1FA20F0F0FA06
S214012A50134B144A009314497923206821F086FB0E
S214012A6012492B46124A206821F080FB284600F0C6
S214012A70E9FE1049206821F079FBFEE703B030BD7E
S214012A80E80D00202CE80300CA3200209529010039
S214012A90140E0020480F0020A1E60300A3E6030061
S214012AA071E7030064E70300B1E60300C0E6030034
S214012AB0BDE60300D5E6030037B50C460346027FA4
S214012AC00021204610F0B6FA0546F8B1234C2449F9
S214012AD0206821F04BFB2349206821F047FB20F0BA
S214012AE0A6FA20F0A5FA204B204A00932049472356
S214012AF0206821F03BFB1F4A1F49206821F036FB66
S214012B002A461E49206821F031FBFEE702212046B5
S214012B1010F0BAFA0546F8B1104C1149206821F0B8
S214012B2025FB1049206821F021FB20F080FA20F0D7
S214012B307FFA0D4B0D4A00930D494D23206821F075
S214012B4015FB0C4A0C49206821F010FB2A460C495B
S214012B50206821F00BFBFEE703B030BD480F0020D4
S214012B60A1E60300A3E6030021E8030081E70300D2
S214012B70B1E6030091E70300A4E70300BCE7030006
S214012B80E8E7030037B5044623729DF81830084677
S214012B9063729DF81C30E271A37200212346227FE6
S214012BA010F048FA0546F8B1104C1149206821F09A
S214012BB0DDFA1049206821F0D9FA20F038FA20F021
S214012BC037FA0D4B0D4A00930D496423206821F016
S214012BD0CDFA0C4A0C49206821F0C8FA2A460B495E
S214012BE0206821F0C3FAFEE703B030BD480F00208D
S214012BF0A1E60300A3E6030011E8030081E7030052
S214012C00B1E6030091E70300A4E70300BCE7030075
S214012C100123054A411100F01F00834052F82100AC
S214012C20034342F8213070474C0E0020044B1B68CA
S214012C301BB1044B0360002070470120704700BFA2
S214012C405C0E0020E825002070B50D4C246884B188
S214012C500C4C85182688B5420DDC6688CD18B54221
S214012C6009DC52B14BB1A0800020E1802281638152
S214012C7070BD0120FCE70420FAE70520F8E700BF55
S214012C805C0E0020E82500202DE9F74F9946494BB8
S214012C901B68002B00F08A80B9F1000718BF0127D6
S214012CA04FF0010BDFF814A17F42BAF80650BAF8CC
S214012CB00A300D9E2B449BB20D440093FFB2ADB279
S214012CC01EB9304603B0BDE8F08F009AABB29A4207
S214012CD06ED9BAF80840BAF80430241AB44228BFAC
S214012CE034461844344B361B80B203EB0512B9F157
S214012CF0000F0AD0072C26D80444A04216D3284633
S214012D00FFF786FF01350020DAE7072C1BD80444BD
S214012D10A042F4D2C108535C00F0070C0BFA0CFC7D
S214012D2023EA0C030130535480B2F1E7C10812F8CC
S214012D3001C000F007030BFA03F343EA0C0301306A
S214012D40535480B2D9E74FEAD00C02EBD00810F00A
S214012D5007000BD1E2083946404601922AF0C3FC2F
S214012D6014F00704019ACAD0904412E00BFA00F35B
S214012D7012F80CE0DBB2591E5B420EEA01013B4041
S214012D8008381943044402F80C10E20808F1010857
S214012D90E1D10BFA04F498F80030E4B26242013C47
S214012DA013403C40234388F80030A8E7012688E713
S214012DB0042686E75C0E002067260020E825002012
S214012DC037B5114D2B68EBB900F052F9044610B136
S214012DD0012003B030BD00F03FF928600028F7D08D
S214012DE002884188094B20461A801A814A43598035
S214012DF059819C80DC802146CDE90042234622464B
S214012E00FFF742FF0020E4E75C0E0020E8250020E3
S214012E102DE9F843002301251A461A4FDFF86C8086
S214012E203C68DFF86490D8F80000D61841888E42D6
S214012E3007D3FBB91022002112482AF054FC0020C7
S214012E4012E0E10708D50133D118C9060ABF57F8C1
S214012E50254064080135E6E753B109EB021120F07D
S214012E6000F8034610B10720BDE8F883721CEBE7B3
S214012E700132E9E7044901EB02111FF0F2FF0028D5
S214012E80D8D0F0E74C0E0020672600205C0E00200C
S214012E9030B5054687B000B300226FF07F43C0E926
S214012EA0012301A8FFF7C2FE044698B9019BCDE9AC
S214012EB002001A882B605B88013A013B284602A96A
S214012EC0049205931FF052FE044618B92846044999
S214012ED01FF085FF204607B030BD0524FAE700BF86
S214012EE05CEB03000122014B1A61704700F00350AE
S214012EF013B5044605F0A8FD00230122217BCDE988
S214012F0000324900B0FBF1F1024A034821F0DFFB31
S214012F1002B010BDE52E0100740E0020F7B508269C
S214012F200E4C054604F580531E67407B05F088FF6E
S214012F3004230B4F02220DF106013846ADF8063088
S214012F401FF094FF38461FF0A2FFA87B05F078FF1C
S214012F50002004F50054266703B0F0BD00C00350FE
S214012F602031002070B50646124821F030F8B168CD
S214012F700022114800F08CF80023042203210220CD
S214012F8002F00EF8002335460C4C0422194618466A
S214012F9002F006F80FCD0FC401222B6830462360DD
S214012FA0074B1A70FFF7A4FF3046FFF7B7FF002064
S214012FB070BD00BF14F4030020310020600E002015
S214012FC0672E00202DE9F74F05460E469046174618
S214012FD099461E4C1E4BDFF87CB008EB0902BA423C
S214012FE002D803B0BDE8F08F4FF0080AC3F870A00E
S214012FF0687B05F025FF07FA0AF242F0010201A9F3
S214013000ADF80420204602221FF030FF20461FF0B4
S2140130103EFF3146102220461FF028FF20461FF0B3
S21401302036FF02220DF1060120461FF01FFF204643
S2140130301FF02DFFA87B05F003FFCBF870A0687B7F
S21401304005F0FEFE1036024B0137C6E720310020A0
S21401305000D0035000E00350034B04481B78002BBC
S21401306008BF0020704700BF672E0020600E0020BA
S21401307030B5064D87B001AC0FCD0FC42B6801A843
S2140130802360FFF76FFF07B030BD00BF8CEE030073
S2140130902DE9F04F04462D4E89B001AD8946904684
S2140130A00FCE0FC596E80700D4F800B0284B85E888
S2140130B007009B4545D003F580439B4543D0254DEE
S2140130C0AB450CBF02254FF0FF35DFF890A0224834
S2140130D00AEB4517D7F8AC6520F079FF606820F059
S2140130E076FF617B207B0023042201F059FF042236
S2140130F0617A207A002301F053FF0123584601A983
S2140131008DF81230CDF80C90ADF8148020F0DEF872
S2140131100020627A237A2E3543EA02430AEB451AE7
S214013120CAF80430627B237B06F0040643EA0243B6
S21401313046F01806C7F8C035C7F8AC6509B0BDE853
S214013140F08F0025C1E70125BFE700BFA0EE030011
S214013150008005500000065014F4030000C0035020
S214013160052300B589B08DF804304FF4E132002311
S2140131704FF4A061CDE902324FF48052CDE904123A
S2140131804FF4A0220693ADF81C30084B0848C3F84C
S214013190C4254FF4C022C3F8BC25142201A9C3F8E4
S2140131A0AC2502F029F909B05DF804FB00C0035014
S2140131B00080055030B503687C4A23F47F4323F032
S2140131C00703934289B040F0EE80082200211220C6
S2140131D0774B0FF07FFF044610B3764D764928688B
S2140131E020F0C4FF7549286820F0C0FF1FF01FFFBC
S2140131F01FF01EFF724B734A009373495C232868C5
S21401320020F0B4FF71492346714A286820F0AEFFCA
S214013210204600F017FB6F49286820F0A7FFFEE75D
S2140132200146032214206C4B0FF054FF044610B3E2
S214013230604D6149286820F099FF6049286820F0B0
S21401324095FF1FF0F4FE1FF0F3FE5D4B5D4A009301
S2140132505D496A23286820F089FF5C4923465C4A59
S214013260286820F083FF204600F0ECFA59492868C8
S21401327020F07CFFFEE7014605221620574B0FF093
S21401328029FF054610B34B4C4B49206820F06EFFD2
S2140132904A49206820F06AFF1FF0C9FE1FF0C8FEE9
S2140132A0474B484A009348497823206820F05EFF40
S2140132B046492B46464A206820F058FF284600F02B
S2140132C0C1FA4449206820F051FFFEE70DF10F01D5
S2140132D004A80FF02DFF044610B3364D3649286872
S2140132E020F044FF3549286820F040FF1FF09FFE7C
S2140132F01FF09EFE324B334A0093334983232868DE
S21401330020F034FF31492346314A286820F02EFF49
S214013310204600F097FA2F49286820F027FFFEE79D
S214013320BDF8143001465BBAADF818309DF813307D
S21401333008228DF81A30FF238DF81B30FE238DF8F6
S2140133401C309DF8123018208DF81D30BDF8103055
S2140133505BBAADF81E3006AB0FF0BCFE054610B3E7
S214013360144C1549206820F001FF1449206820F00C
S214013370FDFE1FF05CFE1FF05BFE114B114A009331
S21401338011499323206820F0F1FE10492B46104A7C
S214013390206820F0EBFE284600F054FA0D4920681C
S2140133A020F0E4FEFEE709B030BD00BFA00001003A
S2140133B0BCEE0300480F0020A1E60300A3E60300CD
S2140133C0F7EE0300C5EE0300B1E60300C0E6030016
S2140133D0BDE60300D5E60300EDEE0300F1EE0300C3
S2140133E007B501A801F058FF9DF80530012B27D13C
S2140133F0214A936DDB0313D4536B23F4FF0323F4A9
S214013400FE4343F4BC1343F4A0635363136B23F4EA
S214013410704343F440431363136B43F4E063136355
S2140134209DF8043063B94FF000531B68134B1B68BB
S214013430134B1B68134B1B68134B1B68134B1B6802
S214013440134AD2F8803043F00303C2F8803003F009
S21401345099FD00F049FB20F03CFE20F0ACFD04F0A5
S2140134606DF800F037FB00F07BFC00F081FF03B045
S2140134705DF804EB04F096BD00C00050004000204B
S2140134800080002000C00020000001200040012034
S2140134900080005030B5204D95B00DAC0FCD0FC457
S2140134A095E80700032384E8070001248DF84D30D2
S2140134B01A4A1B4B0021CDE903231A4B0E220DF1AC
S2140134C02600CDE905342AF00EF94FF48021164B7B
S2140134D00DAACDE907130B238DF824300C238DF8A4
S2140134E02530124B07A90A9320230B93104B114842
S2140134F0009303AB8DF8314003F062FF04469DF85C
S21401350032304FF4E130002B0CBF032100211FF0B5
S214013510E2FD204615B030BD50F103000080055095
S214013520210005000600040224800550682E0020B4
S214013530940E0020E40E0020831E012B10B512D835
S214013540012922D8114B04221B6905210020C3F34F
S214013550401301F025FD0E4B1B681868A8B1BDE8A5
S2140135601040436A18478B1E012B0CD801280CD833
S214013570BDE810400022054B05211B691046C3F328
S214013580401301F00DBD0129E5D910BD00C003505F
S2140135903031002008B50449044804F0BDFDBDE8FB
S2140135A00840FFF777BF00BF34310020080F002026
S2140135B0014820F072BF00BFE40E0020014B1A6ADA
S2140135C018681047E40E0020184B37B583422AD1FD
S2140135D0174B1B783BB3C8B20FF06AFD054610B314
S2140135E0144C1549206820F0C1FD1449206820F0CC
S2140135F0BDFD1FF01CFD1FF01BFD114B114A009372
S21401360011498523206820F0B1FD10492B46104A48
S214013610206820F0ABFD284600F014F90D4920681B
S21401362020F0A4FDFEE703B030BD00BF100F002060
S214013630882E0020480F0020A1E60300A3E6030021
S214013640DFF103006CF10300B1E60300C0E60300FE
S214013650BDE60300D5E6030030B500250368584AE9
S21401366023F47F4323F0070385B093420446029573
S214013670ADF80C507ED002F5802293420ED0A2F116
S2140136808272934240F09A804E4B1B78002B00F0DA
S214013690958005B0BDE8304021F0D1B8B0F80530CE
S2140136A01B2B40F08B80FF2304A91A4611E9030067
S2140136B01FF0B6FC012814BF41F2FC15414B05F082
S2140136C0FC0208BF18701B2120790FF019FD054672
S2140136D010B33D4C3D49206820F048FD3C49206828
S2140136E020F044FD1FF0A3FC1FF0A2FC394B3A4A20
S2140136F000933A495923206820F038FD38492B4673
S214013700384A206820F032FD284600F09BF83649FA
S214013710206820F02BFDFEE7344900902379344AD7
S2140137200968344800F0EAF80546002846D0264CD9
S2140137302649206820F01AFD2549206820F016FD4C
S2140137401FF075FC1FF074FC224B234A009323499B
S2140137506223206820F00AFD21492B46214A206871
S21401376020F004FD284600F06DF81F49206820F07F
S214013770FDFCFEE7B0F80530B7EE047A07EE903AA6
S214013780F8EE677AB0F8073067EE877A013307EE0E
S214013790103AB8EEC77A67EE877AB1EE047A67EE2A
S2140137A0877AFAFE677AFCEEE77A17EE903AB3F577
S2140137B07A7F38BF4FF47A730C4A136005B030BD78
S2140137C0A0000602882E0020480F0020A1E6030074
S2140137D0A3E60300EEF103006CF10300B1E603007B
S2140137E0C0E60300BDE60300D5E603003C31002039
S2140137F0C9350100100F0020012208B5074B1A70C9
S2140138000022074B1A700422064B1A701F22064B21
S2140138101A7003F035FC054B186008BD51330020C3
S214013820892E0020503300204F330020480F0020FF
S214013830024B0349186820F099BC00BF480F0020CE
S2140138400EF2030070B50C4C0C490646206820F0B9
S2140138508DFC03F015FC0546206803F005FC304698
S214013860FFF7E6FF284603F0FFFB20680449BDE8A2
S214013870704020F07BBC00BF480F002010F2030010
S21401388012F2030038B505461FF050FC00230B4A20
S21401389014685CB1AC4206D1A96A6BB199621FF09B
S2140138A04BFC012007E02346A46AF2E7002DF3D083
S2140138B01FF042FC204638BD1160F0E74C0F002097
S2140138C010B50446B0B105F011F82046FFF7DAFF4F
S2140138D010B194F82C300BB9002010BD064C2368AB
S2140138E0002BF9D01FF022FC2368013B23601FF058
S2140138F023FCF1E72220F0E7500F00202DE9F043EA
S21401390085B00546914698460E469DF8307009B931
S214013910002F5CD12846FFF7D3FF0446002836D196
S21401392085F82C00686305F0EFF8864233D905F078
S2140139308BF82146844640F2E7304FF47A72002332
S214013940E6FB0C011DF06AFB4FF0FF3200231DF071
S21401395065FB2B46E88611462846CDE900441D4AFC
S21401396020F0F5FE044690B9C5E9089885F82D7053
S2140139702E631FF0DBFB184A136833B31A469B6AA3
S214013980002BFBD195620023AB621FF0D5FB2046CE
S21401399005B0BDE8F08347B12B4631462846CDE950
S2140139A000440C4A05F074F8DCE7304603A905F03C
S2140139B051F804460028EAD12B462846CDE900777F
S2140139C0044A039920F09FFECCE71560DBE721242B
S2140139D0DDE700BFDD3901004C0F002091F82C30E7
S2140139E013B50C4683B98B8ECA8E93420ED243B959
S2140139F0CDE9003320460B46124A4FF0FF3120F046
S214013A0066FEA38E0133A38602B010BD52B191F8B3
S214013A102D3093B101230093D1E908232046096B89
S214013A20FFF76CFF012384F82C30074B1A6801322C
S214013A301EBF1A6801321A60E6E7084604F056FF10
S214013A40F0E700BFDD390100500F00202DE9F041FD
S214013A50154E336833B34FF00008144F1FF066FB62
S214013A6005463C6824B92846BDE8F0411FF064BB12
S214013A7094F82C30A3B1336884F82C8013B13368E2
S214013A80013B336094F82D3013B92046FFF7FAFE58
S214013A9028461FF051FBD4E9083120469847DDE758
S214013AA0A46ADFE7BDE8F081500F00204C0F00202C
S214013AB0034B1B68002B14BF04200120704700BF76
S214013AC0500F0020024B1868B0FA80F0400970478A
S214013AD0500F002008B5034820F079FABDE80840E9
S214013AE01FF029BA14F40300014820F070BA00BF91
S214013AF014F4030007B508201FF028FB02238DF8F5
S214013B000030054B684601931FF0A9FA082003B060
S214013B105DF804EB1FF025BB006A18100348044A41
S214013B200449121A92101FF0E6BA00BF34210100B0
S214013B30D4220100802F002008B500F02FF8FFF7EF
S214013B40EDFF124B12498B4212D30020114B124942
S214013B508B4218D3FEF7A8FC186850F82240586824
S214013B6040F82240013298688242F5D30C33EAE7E6
S214013B700022F8E71C6844F8220001325C68A24281
S214013B80F8D30833E4E70022F8E700BFF821040081
S214013B90042204000422040004220400124B134AE7
S214013BA070B59A60D3F88820114D42F47002C3F8BC
S214013BB088206FF0010205F50054226641F2FF727B
S214013BC062660222C3F8D020BFF34F8FBFF36F8F18
S214013BD04FF44036032003F025FA0320E66003F095
S214013BE013FA2E6170BD00BF00ED00E00020010059
S214013BF000800044014B1868704700BF4431002024
S214013C00014B1860704700BF44310020084B1B6F02
S214013C1003F00703022B04D0032B05D0012B05D09C
S214013C20FEE7044B18687047034BFBE703487047F1
S214013C3000800050443100204C310020002D31011D
S214013C4008B5FFF7E3FF054B1B6FC3F301330133E1
S214013C50B0FBF3F0024B186008BD00BF00800050B7
S214013C60403100200048704700B4C404014B186876
S214013C70704700BF4C310020054B1860054B1B6F89
S214013C8003F00703032B01D1FFF7DABF704700BF2C
S214013C904C3100200080005000487047002D310153
S214013CA0174B9868C0F304400C280AD8DFE800F0E8
S214013CB00B0909090909072119091B1D1F001148CC
S214013CC07047002070479B6803F04073B3F1807F14
S214013CD011D0B3F1007F10D00B4A002B08BF10465D
S214013CE070470A4870470A4870470A4870470A48AA
S214013CF070470A4870470A4870470A48704700BF2D
S214013D000040015A405DC60000093D00C0EA21019D
S214013D1080BA8C010048E801005A62020024F400CF
S214013D2080841E0040420F00014B1868704700BF98
S214013D304831002000239B6AB3F5903F03D21968EF
S214013D40064A914203D00023037083607047012224
S214013D5002709A689B694260F7E700BF07B0CD5EC4
S214013D6000239B6A10B5B3F5903F11D219680A4A31
S214013D7091420DD1094C227812F0FD0F01D000209E
S214013D8010BDDB6998470028FAD101232370F6E7B6
S214013D904FF48170F4E700BF07B0CD5E8A2E002095
S214013DA04FF00053014A1A6003F00AB902020FF0FD
S214013DB0034B5868C0F30800003818BF012070474D
S214013DC000ED00E013B500242948019420F0FFF827
S214013DD0012304220321204601F0E2F820461FF0C9
S214013DE04EFA0122234B0520C3F8442401A920F0F2
S214013DF0E4F8002839D1204BD3F8F02042F0010234
S214013E00C3F8F020D3F8FC2042F08072C3F8FC20FF
S214013E101A4AA3F55D431A60019B194A03F5D52397
S214013E2003F2FC43B3FBF2F3164A013B1361022390
S214013E30C2F8F0304FF48073C2F804334FF0604399
S214013E40114AC3F8B02F114AC3F8802ED3F8002EBA
S214013E5042F48072C3F8002EFF2283F82020D3F8A4
S214013E60002E22F48072C3F8002E02B010BD00BFEF
S214013E7014F4030000D0035000ED00E0FF030040FF
S214013E80F8590D00000004E055CEACC5090001004C
S214013E904FF06043D3F8802E30B5D20715D50124F4
S214013EA00B4D8440D5F8FC2042F08072C5F8FC200A
S214013EB0D3F8002E2243C3F8002E53F82020002A00
S214013EC0F0D003F82010002030BD1120FCE700BF21
S214013ED000ED00E02DE9F04F9A46564B85B01B7871
S214013EE006460F461546DDF83C909DF844B0DDF8D1
S214013EF05080002B00F09780072A00F296800E9BD8
S214013F00002B00F09280B9F1000F00F08E80129B1A
S214013F10B3F5006F00F38980012803D1109B002BB5
S214013F2000F08380444B03EB05131B7B002B7ED0F4
S214013F30424C10220021684629F0D5FB04EB4514BB
S214013F401022A7BB3946204629F0CDFB43F21003C9
S214013F506380BBF1000F03D1E37843F00303E37002
S214013F60364A0E9B02EB451CCCE90193129B690174
S214013F70581E9DF84C30C0F30A0003F003039B065D
S214013F8043EA001E53582E48012E00EA03004EEA6B
S214013F900003CDF800A0535017D0B8F1000F2ED172
S214013FA09CF8023068F304138CF8023027E00021F5
S214013FB0204629F098FB4FF444736380BBF1000F51
S214013FC0CED1E37843F03003C9E713230CF1100E8A
S214013FD0CCF80C309CE80F008EE80F006FF0030160
S214013FE0DCF81C20109B61F39F02012FCCF81C20EB
S214013FF0CCF8143003D1CCF81890CCF80430002754
S2140140000D4A290102EB051342F80180159A28464C
S2140140105A60694622469F605E7301F045F838464D
S21401402005B0BDE8F08F0748FAE70748F8E7074804
S214014030F6E700BF8B2E002054100020540F0020FE
S2140140400F80FFF3028000F0018000F0078000F08F
S21401405038B5124B05461B78DBB1E0B11FF066F8A8
S2140140600F4A00231146147B54B92B6001251A010F
S21401407001EB03131D738C501FF05EF8204638BD0C
S2140140800133082B02F11002EDD11FF055F8054857
S214014090F5E70548F3E70548F1E700BF8B2E00205A
S2140140A054100020048000F0028000F0018000F02F
S2140140B038B51FF03BF8002305460B4A147B6CB954
S2140140C00133082B02F11002F8D100F0A9FF074BCB
S2140140D028461C701FF030F8204603E028461FF0E3
S2140140E02BF8034838BD00BF541000208B2E00204B
S2140140F0058000F00D4B10B51B78044693B10728D8
S21401410012D81FF013F80A4B03EB04131A7B2AB1DB
S21401411000241C731FF010F8204610BD1FF00CF889
S2140141200448FAE70448F8E70448F6E78B2E00202F
S21401413054100020068000F0028000F0018000F09C
S214014140154B13B51868002301908DF804301EF046
S214014150EDFF124B1C7824B11EF0EEFF104802B0A2
S21401416010BD01221A701EF0E7FF0E4B01A81C734A
S2140141701C7783F82C4083F83C4083F84C4083F846
S2140141805C4083F86C4083F87C4008238DF8073048
S21401419000F062FF2046E2E768F203008B2E002063
S2140141A0038000F0541000200A4A08B512785AB16C
S2140141B007280BD8084A02EB00131B7B43B10021EA
S2140141C000F03CFF002008BD0448FCE70448FAE77D
S2140141D00448F8E78B2E002054100020028000F0DF
S2140141E0018000F0078000F00A4A08B512785AB13B
S2140141F007280BD8084A02EB00131B7B43B10121A9
S21401420000F01CFF002008BD0448FCE70448FAE75C
S2140142100448F8E78B2E002054100020028000F09E
S214014220018000F0078000F00A4A08B5127852B102
S21401423007280AD8084A02EB00131B7B3BB100F0A3
S2140142407FFF002008BD0548FCE70548FAE705485A
S214014250F8E700BF8B2E002054100020028000F0EB
S214014260018000F0078000F00D4B1B7893B1072802
S21401427012D889B10B4B03EB00131B7B73B10A4BAE
S2140142801A6D01238340134214BF0123002300202B
S2140142900B707047054870470548704705487047DA
S2140142A08B2E00205410002000000450028000F0E5
S2140142B0018000F0078000F00B4A10B512780C461A
S2140142C062B107280CD859B1084A02EB00131B7BD0
S2140142D043B100F047FF2070002010BD0448FCE702
S2140142E00448FAE70448F8E78B2E00205410002013
S2140142F0028000F0018000F0078000F0184B2DE9E5
S214014300F0411F6D5B6D1F4000D5FEE701260025BD
S214014310144CDFF85880374218D02368C8F850602C
S214014320A3B1A168284601316268A1609847637B02
S214014330012B0BD150B90C4B03EB45131A7B60F3E1
S21401434041021A731A7F60F341021A770135082D6C
S2140143504FEA460604F11004DDD1BDE8F08100BF46
S2140143600000045054100020540F00200020045078
S214014370024B1968024B186815F004BD5031002035
S2140143807031002070B59400224605460E462AF08C
S21401439073F9431C0AD058B922463146284629F0FB
S2140143A078F90028034808BF002070BD0248FCE7E2
S2140143B00248FAE710E000F021E000F024E000F007
S2140143C010B504462AF05CF9431C10D088B900F0F9
S2140143D08BFF234620F003002044984201D10020A1
S2140143E010BD53F8042B0132F7D00348F8E7034811
S2140143F0F6E70348F4E700BF0EE000F021E000F026
S21401440024E000F008B51EF08AFE014B186008BDD6
S214014410C4170020014B18681EF085BEC417002083
S21401442041F67133124A30B5D469124DD36393689D
S214014430A84204F4803423F4401306D893600E4A4D
S214014440D2F8183223F002030AE043F48013936093
S2140144500A4B9842F3D9084AD2F8183243F00203BD
S214014460C2F8183214B10022014BDA6330BD00BF26
S21401447000000350005A620200C0075080F0FA02A2
S2140144802E4B98424AD022D82D4B984240D014D871
S2140144902C4B984239D00AD82B4B984232D02B4B12
S2140144A098422FD02A4B98422CD000207047294B97
S2140144B09842FAD1284B186F7047284B98422AD059
S2140144C0274B9842F1D1244BD3F880007047254BF7
S2140144D098422BD009D8244B984223D0234B98429C
S2140144E0E3D11D4BD3F88C007047214B984221D065
S2140144F003F5740303F510539842D6D1164BD3F83F
S21401450098007047144B986D7047134B586E704760
S214014510114B586F7047104B986F70470E4BD3F87E
S214014520840070470C4BD3F8880070470A4BD3F8C9
S21401453090007047084BD3F8940070470048E80194
S2140145400024F400C0CF6A0080841E0000093D00EC
S21401455040420F00405DC6000080E00FC0EA210126
S21401456080BA8C01007E560380D54302006CDC02C3
S2140145700090D00338B5134B0546D3F820010C46FE
S21401458000F0070004281AD8DFE800F003090D112F
S2140145901500012305B1286004B1236038BDFFF77B
S2140145A029FB0423F6E7FFF761FB0323F2E7FFF796
S2140145B077FB0523EEE7FFF76FFB0223EAE700230D
S2140145C01846E7E70080005037B50C460021114B2E
S2140145D00191D3F88031054603F00303022B0ED078
S2140145E0032B11D0012B03D101A8FFF7C3FF0D2127
S2140145F00DB1019B2B6004B1216003B030BDFFF704
S2140146004FFB05210190F3E7FFF746FB02210190DE
S214014610EEE700BF0080005038B5104B0546D3F8D2
S21401462040310C4603F00303022B0BD0032B0DD0B5
S214014630012B0FD11EF06DFD082305B1286004B1D2
S214014640236038BDFFF770FB0723F6E71EF064FD15
S2140146500923F2E701230020EFE700BF00800050A6
S21401466038B5104B0546D3F860310C4603F003030A
S214014670022B0BD0032B0DD0012B0FD11EF049FDC1
S214014680082305B1286004B1236038BDFFF74CFB51
S2140146900723F6E71EF040FD0923F2E70123002079
S2140146A0EFE700BF0080005038B5144B0546D3F83D
S2140146B000020C4600F0070004281BD8DFE800F0D3
S2140146C003090D111500012305B1286004B123600B
S2140146D038BD1EF01EFD0823F6E7FFF725FB07236E
S2140146E0F2E71EF019FD0923EEE7FFF7A9FA0C23FE
S2140146F0800AE9E700231846E6E700BF008000507D
S21401470038B5144B0546D3F808020C4600F00700EE
S21401471004281BD8DFE800F003090D11150001235A
S21401472005B1286004B1236038BD1EF0F2FC0823F1
S214014730F6E7FFF7F9FA0723F2E71EF0EDFC092387
S214014740EEE7FFF77DFA0C23800AE9E70023184617
S214014750E6E700BF0080005038B5104B0546D3F899
S21401476040320C4603F00303022B0BD0032B0DD073
S214014770012B0FD11EF0CDFC082305B1286004B132
S214014780236038BDFFF7D0FA0723F6E71EF0C4FC16
S2140147900923F2E700231846EFE700BF0080005028
S2140147A038B5104B0546D3F800310C4603F0030329
S2140147B0022B0BD0032B0DD0012B0FD1FFF756FA8E
S2140147C0032305B1286004B1236038BDFFF7ACFAB6
S2140147D00723F6E71EF09BFC0623F2E701230020E1
S2140147E0EFE700BF0080005038B50C4605461EF0C6
S2140147F096FC054B9A6A54402C4054409C62BDE896
S21401480038401EF090BC00BF00C00050032814D0F2
S21401481005D8012805D0022809D0002005E00F2878
S214014820FBD1084B186FC0F3013001307047054BC0
S214014830D3F89000C0F30460F7E7024B186FC0F39B
S2140148408020F2E7008000501FB500230193252841
S21401485017D8DFE800F0131A1D272C363B51565B9C
S21401486060656A78161A401616561A272C27361AC5
S2140148705127783B3B3B3B2727275B60FFF7C6F971
S2140148800190019805B05DF804FBFFF7D9F9F7E749
S214014890FFF7BCF902460220FFF7B8FFB2FBF0F2C1
S2140148A00192EEE7FFF7CCF902460320F4E7FFF7A3
S2140148B0C7F902460320FFF7A9FFB2FBF0F2520840
S2140148C0EEE7002101A8FFF77FFEDAE7002101A845
S2140148D0FFF750FED5E702934FF0E0231B695B0715
S2140148E005D5FFF7ADF90290029B0193C9E703A92D
S2140148F002A8FFF791FEF7E7002101A8FFF78CFE5B
S214014900BFE7002101A8FFF7ABFEBAE7002101A827
S214014910FFF7CAFEB5E7002101A8FFF7F1FEB0E7F1
S214014920002101A8FFF73CFFABE7094BD3F8803025
S21401493003F00303022BA8D0032B01D000209FE72E
S214014940FFF7AEF99CE7002101A8FFF705FF98E7FE
S2140149500080005008B50120FFF776FFBDE808404B
S2140149600349884294BF01210221032000F002B8C6
S21401497080F0FA02032810B50C4627D004D8012887
S21401498004D0022817D010BD0F28FCD11EF044FC1D
S2140149901EF04AFC124A013C136F23F4405343EACB
S2140149A004331367FFF74CF90021FFF739FDBDE823
S2140149B01040FFF7CFBF0A4A4C1ED2F8903023F0C2
S2140149C0F85343EA0463C2F89030DCE7044A4C1E0D
S2140149D0136F23F4806343EA84231367D3E700BF8E
S2140149E0008000501FB500230193252821D8DFE859
S2140149F000F013202020202A2F454A4F54595E717B
S214014A0020203420204A202020202A204520712FD3
S214014A102F2F2F2020204F54314B1B6F03F00703FD
S214014A20013B032B05D8DFE803F00C02080A042338
S214014A300193019805B05DF804FB0323F8E706230C
S214014A40F6E70223F4E7002001A9FFF7BDFDF0E732
S214014A50002001A9FFF78EFDEBE702934FF0E0235C
S214014A601B695B0705D5FFF7EBF80B230393039B45
S214014A70DEE703A902A8FFF7CFFDF8E7002001A9AA
S214014A80FFF7CAFDD5E7002001A9FFF7E9FDD0E74A
S214014A90002001A9FFF708FECBE7002001A9FFF7D8
S214014AA02FFEC6E7002001A9FFF77AFEC1E70C4BEF
S214014AB0D3F8803003F00303022B03D0032B05D079
S214014AC00023B5E7FFF7BCF80B23B1E7FFF7E8F8DB
S214014AD00523ADE7002001A9FFF73EFEA9E700BFC9
S214014AE000800050024A536A23F001035362704764
S214014AF000C0075008B5FFF775FF07280ABF024B2D
S214014B004FF6FF70188808BD3C33002008B5FFF744
S214014B1069FF03280ABF024B4FF6FF70188808BDCD
S214014B203A33002038B50546FFF7AAFC204B044669
S214014B305A68012A04D11F494A609A699207FCD132
S214014B400020FFF74FFF042803D11EF065FB1EF07F
S214014B506BFB194A24F0407395421FD0174A9542C1
S214014B601FD0174AD16811F0060FFBD190689360E9
S214014B7091684B4013F4F81F16D12846FFF740F80A
S214014B800020FFF72FFF042810D1FFF759F8002166
S214014B90FFF746FCBDE83840FFF7DCBE43F0007384
S214014BA0DFE743F08073DCE79060E9E738BD00BFDC
S214014BB000C0015000E0015040420F0080841E00FA
S214014BC000000150F8B504460020FFF70BFF03284C
S214014BD000F0818045F60E0302213F4AC2F880307C
S214014BE03E4B9962012103F580539962936DD90377
S214014BF0FCD4D4E900131B0543EA0163E17B94F876
S214014C0020500B43217BE77E43EA0143617B6D0124
S214014C1043EA0133A17B43EA811313619169D4E925
S214014C2004031B0643EA806301F000410B43A17EA7
S214014C3094F823000B43217E43EA0143617E43EA55
S214014C4001239361136AE66923F00D0394F8221099
S214014C5043EA870366BB1362966A94F8213045EAF5
S214014C60031326F033052B4343F0010393621C4DD7
S214014C70194A936D35EA0303FBD10225174B9D6252
S214014C80936D5B00FCD41369A56823F4700343EAB3
S214014C90055313614FF00042104B9A6119B9022275
S214014CA003F580539A6278B901220E4B9A620BE0A3
S214014CB0334343F008031362936A23F03303034339
S214014CC02B4343EA4103936294F824301BB1024B11
S214014CD0054AC3F88020F8BD00C0005000D000503F
S214014CE00300014000E00050F1A7FFFF70B5184C2B
S214014CF0FF28A66A2AD8A36D13F4803F18BF0122A5
S214014D00144B18BF9A6202229A62A56D15F080456F
S214014D10FBD1114AA36992F9002023F47F030244D0
S214014D2023F47F4382F3080243EA002343EA024363
S214014D30A36131460220FFF757FDA36DDB0303D5C0
S214014D4031460120FFF750FD284670BD2125FBE7BF
S214014D5000C0005000D000508C2E0020014B93F96B
S214014D60000070478C2E002001231248124A816AE7
S214014D709362836D03F00303032BFAD1022393623C
S214014D800C4A936D5800FCD40C48936D30EA03032B
S214014D90FBD10122084B1A65A3F580539A6D920741
S214014DA0FCD49A6D9007FCD59A6D9207FCD503202A
S214014DB0FFF71ABD00C0005000D0005003000100EC
S214014DC0F0B5D0E901434FF4D1560227164A41788F
S214014DD005785662154E4F2977604FF0010728BFB8
S214014DE04F2106F5805677601669F603FCD441EA32
S214014DF0052151611B01417B43EA04230B43017BDF
S214014E0043EA41039360C37B817B1B0143EA411361
S214014E10417C0B43017C43EA41035360837C13B11D
S214014E206FF4D1535362F0BD0000025000100250DF
S214014E30014B1880704700BF3C330020014B18809F
S214014E40704700BF3A330020284B984242D01AD808
S214014E50A3F5B703A3F55863984237D00CD8244B73
S214014E60984225D0234B98422AD0234B984217D0FC
S214014E700023224A93607047214B9842F8D1214B78
S214014E80D3F8BC301FE0204B984227D01F4B9842E6
S214014E9028D01F4B9842EBD11A4BD3F8C83012E0FA
S214014EA0184BD3F8A03023F0407343F00073E0E7CB
S214014EB0144BD3F8A03023F0407343F08073D8E747
S214014EC0104BD3F8A03023F04073D2E70D4BD3F844
S214014ED0B830F8E70B4BD3F8C030F4E7094BD3F8FA
S214014EE0CC30F0E7074BD3F8D030ECE7C0EA21012D
S214014EF080841E0000093D0040420F000040015A18
S214014F000024F4000080E00F0048E801005A620225
S214014F1080BA8C010C4A10B51369044643F00403A9
S214014F20136103F0C7FA1EF097F9084B084AC3F855
S214014F30202430BF1EF091F903F0DEFA1CB9BDE85B
S214014F401040FEF77DBE10BD00ED00E000E003500E
S214014F500000FFFF0A4A10B51369044643F0040334
S214014F601361084B084AC3F8202403F0A3FA30BFA4
S214014F7003F0C2FA1CB9BDE81040FEF761BE10BDD1
S214014F8000ED00E000E003500000FFFF034A017956
S214014F90D36E23F030030B43D366704700400050B6
S214014FA0F8B504460D461F4616464AB101238B4006
S214014FB03021184A01FB0022F7B141F2100153508B
S214014FC004EB4403072D4FF00F014FEA031316D8E5
S214014FD0A80006FA00F281400F4818441EF040F976
S214014FE04EB9012330210B4AAB4001FB042277B1B5
S214014FF041F210015350F8BD42F21001DFE7A5F16E
S2140150000800800006FA00F281400448E5E742F213
S2140150101001EFE700C0035004C003500CC003505A
S21401502008B5152001F0DEFF0022FF21024B5A656C
S21401503099625A6008BD00BF00000450044A054B3F
S214015040002908BF1346012282401A60704700BF3C
S214015050401004504020045010B5044641780278B0
S2140150600120104B120658609A60A278152042EA79
S21401507001429A61FF229A6200229A631A644FF0F3
S21401508000425A654FF0FF3203F500531A6501F0EE
S214015090C9FF1520E17801F0D3FFBDE810401520C7
S2140150A001F0B2BF00000450F8B50125C3B2DFF825
S2140150B08CC0D1F800E09D408F7ACB7A0C46097BF4
S2140150C0CCF850500CF5005C4CF820E04FF0300E58
S2140150D0184E1B050EFB006094F80DC043EA07430B
S2140150E043EA415322F00302C0F860C0C365026779
S2140150F01EF01CF8104B5D65237A13B1336C2B43FD
S2140151003364637A13B1B36B2B43B3632279A37908
S21401511043EA0243094A93616179E37943EA014329
S21401512005498B61034B55639D64BDE8F8401EF04D
S21401513003B800BF000004500010045000200450C3
S21401514010B50124C0B284401DF0F0FF044B5A6D27
S21401515022EA04025A659C62BDE810401DF0ECBFCD
S2140151600000045010B50124C0B284401DF0DEFFDB
S214015170074BDA6A224208D15B6B9C430CBF0124C1
S21401518000241DF0D9FF204610BD0024F9E700BF1A
S2140151900000045041F67132034BDA63012203F535
S2140151A00053DA60704700BF0000035041F67132C9
S2140151B00121044BDA6303F50052D1600022DA6361
S2140151C0704700BF00000350CB784A7810B55B01EA
S2140151D00C7843EA82030A79234343EA02130C223A
S2140151E0424302F1B0421363012C02BF8A78024B9C
S2140151F043F8202010BD00BFD080035008B54FF003
S214015200B0435A686AB958B15B680BB11EF038F8FA
S21401521001210D4B59601EF033F84FF0B043D960B1
S21401522008BD5B680BB11EF02BF80028F0D11EF00C
S21401523027F84FF0B0430222DA601EF021F801226F
S214015240024B5A60ECE700BF0010005800200058DF
S2140152504FF0B0414B6810B50BB11EF011F80122AA
S2140152600B4BC4785A608378934043EA84034478AE
S2140152702343047943EA0413447943EAC4038B6065
S214015280044B5A600378C3F10203CB6010BD00BF24
S2140152900020005800100058054B5B69C3F38512C7
S2140152A0827003F03F021B0B42700370704700BF11
S2140152B000C0075040F6B732064B5B689BB293427C
S2140152C09FBF4FF47A72B3FBF2F3034AD05C88BFF8
S2140152D0002070470080E00F8DF20300014B986CB0
S2140152E0D96C70470080E00F0120034B9B680A339E
S2140152F003F01F03984070470080E00F0D4B984263
S21401530008D1A3F50033C3F88411C36D43F08003BD
S214015310C3657047084B984204D1A3F51033C3F810
S2140153209411F2E7054B984204BFA3F52033C3F866
S214015330A411EAE70080055000C0055000000650A1
S21401534070B5054616461C4619B90320FFF77CFAC8
S2140153500146402C1BD003D8DCB1202C1BD070BDDD
S214015360602CFCD1042303FB06F2530803EB411324
S214015370B3FBF2F3094A203B02EAC303AA6822F010
S2140153806002AA60AA681443AC60EB61E7E70623F3
S214015390E9E71023E7E70823E5E700BFF8FF7F000A
S2140153A0012200F580535A6040F6AA6341F20502D5
S2140153B0436100230D498360C365C26000F5005256
S2140153C00361C361C364916409498365884203D15B
S2140153D003650023436506E006498842F8D001F5D7
S2140153E080418842F4D0012353607047FFFF0100DB
S2140153F00080055000C0055070B50D46FFF7D0FF80
S214015400012300F580567360AB7C04461BB18368AC
S21401541043F080438360EB7C1BB12046297DFFF778
S2140154206DFF2A8A6B7B20461343EA891343E360A8
S2140154302B7BD5E90112FFF783FF6B7D1BB1A368B8
S21401544043F48033A360AB7D1BB1A36843F40043F0
S214015450A360EB7D2A7E1B07120502F4E00203F02F
S214015460E0431343A365697E1F4A8B1E012B1F4B26
S2140154701DD8944217D002F58042944215D002F509
S214015480804294420CBF02224FF0FF3203EB4213DC
S214015490022041F2AC520329985020D10423F3652F
S2140154A02B78636170BD0022F0E70122EEE794429B
S2140154B011D00F4A944210D002F5804294420CBF9C
S2140154C002224FF0FF3203EB4213022042F2AC52AB
S2140154D001299850E1E70022F5E70122F3E70422CB
S2140154E004F50053DA65DBE70080055000C0035081
S2140154F000C0055038B50446054D27F011FC0FCC09
S2140155000FC594E80F0085E80F00002038BD00BFE6
S214015510C817002047F6FF739A42F0B572D00229E9
S21401552072D83A4B5B5C022B6ED8394DDF0005EB27
S214015530C304A17815F83330012938BF0121012BA6
S21401554013D10025E078401AA84202D80844C0B218
S214015550F0BD431B6668A0EB530336F91360964211
S214015560D4BF1D4603F1FF30EEE760680028EFD098
S214015570B0F90040944204DBB0F902409442B8BF4F
S214015580144683883D44FF2B19BFC8224FF0280CD0
S214015590B0F90620B0F908C0A2EB04030CBF01263F
S2140155A0002693FBFCF333446E781BB29E4201DD6A
S2140155B0002B01DA731E1BB24FF47A7C01339BB2C7
S2140155C0071D5D1E2DB24FEAC50E00EBC505EA8824
S2140155D0AD689E4214FB025222EAE27202F15C02BC
S2140155E0B2FBFCF204DD37F8335001339542E8D2C2
S2140155F000EB0E039888904228BF1046884238BFB9
S2140156000846A4E7FF20A3E70020A1E790F20300E5
S214015610C81700200229F0B560D8314B595C022921
S2140156205CD8304B13F83100012816D103EBC103C7
S2140156309C78D878012C214638BF0121904294BF2E
S214015640C1EB0001C1EB0201001BCAB28242C8BF16
S21401565000225B6833F91200F0BD002A3CD003EB50
S214015660C1035968002939D09878904202D3B1F91C
S2140156700200F1E7DC78B1F900009442ECD95C78DD
S2140156808B88013CA3F1FF06734201F10405E4B2E5
S214015690734101F10C07DEB2B44216D805EBC30321
S2140156A04FF47A756A43B3F902405B68D21A04EB89
S2140156B0D47302EB630292FBF4F29042CCDBB1F9B5
S2140156C002009042C8DC10B2C6E737F833C05E1C51
S2140156D09445E3D33346DEE70348BDE70348BBE71B
S2140156E090F20300C81700200CFEFFFF0080FFFFAA
S2140156F008B50448FFF7FEFEBDE80840012027F084
S21401570013BB00BF94F20300004870473E330020ED
S2140157107FB50222084B0949CDE901234FF00073FA
S214015720CDE90313052301A94FF0FF30059327F0B8
S2140157302BFB07B05DF804FB006A180000020400AA
S2140157402DE9F0418CB08846DDE912761D46044607
S214015750002847D0002945D0002F43D0002E41D045
S21401576013F00F033ED120482049A360002A08BF4A
S2140157700146E361C4E90013404609A91DF000FF94
S21401578068BB204609991EF03FF8294620461EF0C0
S2140157903BF8694640461DF0A1FF00BB694620461E
S2140157A01EF01EF8404603A91DF0A3FFB8B9204617
S2140157B003A91EF015F806970127204645F0005567
S2140157C006A9079708951EF00BF8204609A9099621
S2140157D00A970B951EF00EF820461DF0FFFD0CB043
S2140157E0BDE8F0812120FAE7000100040001010470
S2140157F02DE9F0418CB0884616461D460446129F98
S21401580000284BD0002949D0002A47D0002F45D088
S2140158100B68103B102B41D8214A22FA03F3D90713
S2140158203CD500231F4A8360C0E90023C36109A950
S21401583040461DF0A5FE70BB204609991DF0E4FF09
S214015840294620461DF0E0FF694640461DF046FF0A
S21401585008BB694620461DF0C3FF404603A91DF05C
S21401586048FFC0B9204603A91DF0BAFF06960126D7
S214015870204606A945F00055079608951DF0B0FF8D
S214015880094B204609A909970A960B931DF0B2FF0A
S21401589020461DF0A3FD0CB0BDE8F0812120FAE7FB
S2140158A0010101000000040410000020F0B50C46C0
S2140158B017461E46054695B0002874D0002972D0BA
S2140158C0002A70D0002B6ED0036B0F2B5BD8002301
S2140158D0364A3846C4E90023A360E36111A91DF0E6
S2140158E04FFE00285BD1204611991DF08DFF296BD4
S2140158F020460F2984BF01F00F0110311DF084FFEF
S214015900384602A91DF0EAFE002848D1204602A921
S2140159101DF066FF384605A91DF0EBFE00283ED1B6
S214015920204605A91DF05CFF0122214B089509922E
S2140159300A932B6B05F1100003F00F0141F00051A3
S2140159400B900F2B0C920D910E900F9243F000527C
S214015950109226D90A9B08A923F0005320460A93E1
S2140159601DF03EFF0BA920461DF03AFF01231196BC
S21401597012930F4B204611A913931DF03BFF2046AF
S2140159801DF02CFD0BE000F1200301900093012295
S214015990102339462046FFF7D3FE002897D015B0CE
S2140159A0F0BD0EA9DFE72120F9E700BF00000404DF
S2140159B0100000202DE9F04F9BB00C4690461F4684
S2140159C00546DDF89090002800F0B280002900F02E
S2140159D0AF80002A00F0AC80002B00F0A980026B9B
S2140159E002EB09031B09B3EB121F02F00F0600F0CE
S2140159F0978000234F4A8B60C1E90023CB61404664
S214015A0017A91DF0BDFD0346002840F0858006EB72
S214015A10090B204617992BF00F0A1DF0F5FE51468B
S214015A2020461DF0F1FE404602A91DF057FE034632
S214015A30002871D1204602A91DF0D2FE404605A9D4
S214015A401DF057FE0346002866D14FF0010801906D
S214015A5005A920461DF0C4FE374A204608A9089528
S214015A60CDF824800A921DF0BBFE46F00051AAEB49
S214015A70060605F1100346F000560B93CDF830806C
S214015A800D910E97CDF83C8010960D99204621F089
S214015A9000510D910BA900931DF0A2FE20460EA900
S214015AA01DF09EFE019B244A1193AAF1100343F0B8
S214015AB00053CDF84880139305F120031493CDF8D5
S214015AC054801692139B204643F080431393139BF6
S214015AD011A923F0005313931DF08CFE204614A940
S214015AE01DF088FE144A17A920461795CDF8608048
S214015AF019921DF07FFE20461DF070FCAAEB0B01EB
S214015B0049440190ABEB0A020098394427F009FE9C
S214015B10019B2A6B4A442A6318461BB0BDE8F08FE6
S214015B2010304A463946304427F0FBFD0023F0E7A3
S214015B302123F1E703020004100000202DE9FF47AE
S214015B404FF000080E4617460446CDF800800028A0
S214015B5059D022B90025284604B0BDE8F0870029AF
S214015B6051D032F0030902F0030A1FD04FF0E06370
S214015B70C0E9003801230191C0F808800293C0F8FB
S214015B801C8049F0005301A903931DF033FE4946DA
S214015B9020461DF039FE20461DF020FC054628B1A2
S214015BA04A464146304627F09EFDD4E7BAF1000F3B
S214015BB0D0D04FF000084FF0E063C4E9003801236D
S214015BC0CDF804D00293114B204601A9C4F80880F1
S214015BD0C4F81C8003931DF00DFE042120461DF021
S214015BE013FE20461DF0FAFB054608B13A46D8E7F3
S214015BF0009A4E44EB00013522FA03F3AA4506F853
S214015C00013BF7D1A6E72125A5E700BF0400002048
S214015C10F0B50F4616461D46044693B010B921202E
S214015C2013B0F0BD0029FAD0002AF8D0002BF6D028
S214015C30002331461A4638461DF047FC0028EFD1AE
S214015C40304602A91DF0ECFB0028E9D1386834493A
S214015C50029A88426B695ED19342E0D32B68002B8F
S214015C60DDD14FF060623846C4E90023A360E361EA
S214015C7001A91DF085FC0028D2D10199204621F406
S214015C80F06101911DF0C0FD694628461DF078FCC3
S214015C900028C5D1204600991DF0B6FD384609A951
S214015CA01DF01CFD0028BBD1204609A91DF098FD5A
S214015CB038460CA91DF01DFD0028B1D120460CA9BF
S214015CC01DF08EFDEB684BB1284606A91DF006FDBA
S214015CD00028A5D1204606A91DF082FD304603A95D
S214015CE01DF007FD00289BD1204603A91DF078FD75
S214015CF028460FA91DF0FDFC002891D120460FA9CA
S214015D001DF078FD032520461DF068FB012887D18C
S214015D10013DF8D184E7B3EB420F9FD27FE700BF86
S214015D20200000B070B50E46154604468AB000281D
S214015D305CD000295AD0002A58D0012329461A4699
S214015D4030461DF0C2FB00284ED1B36813F4C04F95
S214015D504CD0AB6803F4C043B3F5005F46D1254B86
S214015D60A060C4E90030E06107A930461DF008FCD8
S214015D70002839D1204607991DF046FD01230293DC
S214015D804FF00053204601A903931DF029FD30462C
S214015D9004A91DF0AEFC38BB204604A91DF020FD69
S214015DA0EB681BBBAB6803F4C043B3F5005F1DD1C2
S214015DB0694628461DF057FBB0B9009B6A699A42AE
S214015DC016D32A6943F0005307920122204607A9F9
S214015DD00892032509931DF00DFD20461DF0FEFADD
S214015DE0012801D1013DF8D10AB070BD2120FBE7A1
S214015DF01D20F9E7000001021FB5044698B191B1D4
S214015E0000230A4A8360C0E90023C361012301918C
S214015E100293074B01A903931DF0ECFC20461DF0ED
S214015E20DDFA04B010BD2120FBE700BF00000843E7
S214015E300400002006289ABF014B185C002070471A
S214015E4080F3030030B5154B87B00293144B0390D3
S214015E50049346F611030D46059300F077F91428CE
S214015E60044616D168461DF085FD4FF0A84303226F
S214015E7002A95A6319601D619A63DA6B9207FCD115
S214015E80142C02D168461DF083FD00F08FF90446FC
S214015E9001E00028E9D0204607B030BDE817002011
S214015EA0040000202DE9F04FB1B005468C469E4611
S214015EB0E8466F4EDDF8EC90409C06F1100A474626
S214015EC030687168083603C75645B846F7D13E9B19
S214015ED003EB0208C8F1000A0AF00F0AB9F1000F35
S214015EE000F09D80C9F1000707F00F070121DDF8DA
S214015EF0FCB044F00050C4F11006CDF810B0059186
S214015F000690300200F4F85040F021000790B9F1F5
S214015F10000F40F08680CDF820D047F00050002DCD
S214015F2000F08480099121210A9041EA07210B9112
S214015F3042F00050CDF830C03D9B08A94FEA0A2C2C
S214015F400D910E904CF041000F901093002A75D1E0
S214015F503E9B119143F0005312933C9B1390149374
S214015F6010AB1593434B444A169340F6110317930F
S214015F70424B0021002D08BF1346189314AB19930A
S214015F803F4B10221A9311231B931CAB184627F084
S214015F90AAFB01221D92002246F0804603461E9669
S214015FA0239205B9EB46102CCDF880B024AE4BD128
S214015FB001232246002130462193229427F093FBA9
S214015FC020AB002125938F4218BF334647F080420D
S214015FD026923A9A2CA828922993B2FA82F35B0960
S214015FE049EA837310222B912A9327F07CFBB9F19F
S214015FF0000F00D028AED04448F080432CA918A842
S2140160002D962E93FFF71EFF30B92DB90346A342F6
S21401601025D1002818BF2C2031B0BDE8F08F1027FD
S21401602064E7CDF820E049F0005078E7002C3FF413
S21401603079AF04A9099101210A9076E73E9B0CAA43
S21401604011924120129388E71022002130462193B5
S214016050229427F048FB002CB2D10123B1E703F1CB
S214016060C0026A4412F8C02C01331043CFE700BFC8
S21401607087F30300100000209CF30300A0F3030045
S21401608004000020F0B5C0299FB0DDE9244557D0B3
S214016090B1F5807F04D0802948D029201FB0F0BDFB
S2140160A001265CB140F2344702941024039604940E
S2140160B0212401970594069502AC0AE040F21447A4
S2140160C00294102403960494212405940124019734
S2140160D00695079401251024089409950A92212211
S2140160E00B950C940D92174A0AAD0E92164A0F950F
S2140160F0109242F61102119212931395149415926E
S21401610001AA1692D3B112AB179304231893112345
S214016110199316AB1A901B9340F61103C9081C91EC
S2140161201AA806A91D93FFF78DFEB7E7012614B935
S2140161304FF48267C4E74FF48667B5E70EABE3E733
S2140161400F20ABE798F3030010000010144A38B58F
S214016150D2F8803243F00103C2F88032114B5B68FB
S214016160C3F3080343B14FF0A842D36B13F0430FB8
S214016170FBD11424204638BD4FF0A843DC6B14F045
S2140161804304FBD1084D2B681BB90421284603F0B4
S21401619095F82B68013343F000432B60EAE700BF14
S2140161A00080005000ED00E0E8170020014B0020C1
S2140161B05B68704700ED00E0012300F01F02A0F5C8
S2140161C006200949A0F550604009934051F8202067
S2140161D01A4341F82020054951F8202022EA0302FB
S2140161E041F82020704700BF00180020EC1700205F
S2140161F00121A0F506230E4AA3F550635B0900F0C2
S2140162001F00814052F82300014342F82310094938
S214016210D1E90030034488680344C8680969034427
S2140162205B1802BFC2E90033C2E90233136170474B
S214016230EC170020001800202DE9F04FA9B00392BA
S2140162401D4604460822339ECDE90401414021FA49
S21401625002F34B40980702F1080218BF9B00202A60
S2140162601C44F4D18123B4FBF3F303EBC313E41A08
S214016270734B04F506241B7804F55064002B3ED1BD
S214016280FEF776F8074620B16FF0910029B0BDE819
S214016290F08F0146402208A827F025FA4022394609
S2140162A018A827F020FADFF8B481DFF8B491C346C6
S2140162B00BF10F0ACDF800A0102208A95B46D9F809
S2140162C0000026F0DEFA0022014608F1100808AFA9
S2140162D0914246D1CDF800A05B461022D9F80000C5
S2140162E018A926F0D7FA4FF0000A834618AFD3450F
S2140162F041D1544B9845DAD10122514B1A704FF0D7
S214016300810A4FF00008DFF85CB1A4F50627A7F56F
S21401631050635B095BF8232004F01F01CA40D207D3
S2140163203DD4494A52F82330CB40DB072AD5B8F191
S214016330000F08BFA0468123A7F6FF47B7FBF3F37C
S21401634003EBC313FF1A07F50624BAF1010A04F595
S2140163505064DAD1039BBBB1B8F1000F14D04446A8
S21401636019E057F8040BCDE90612FFF725FF079A47
S21401637006990132ACE757F8040BFFF739FF0AF12B
S214016380010AB4E7039B13B96FF08B007EE7B8F1FF
S214016390000F18BF4446349B00201C6076E7329BF2
S2140163A013B10023329A13600EB100233360102319
S2140163B0DFF8AC9000932A4600232146D9F8000066
S2140163C013F052FE60BB32992A68204BC9B99A4233
S2140163D006D02146D9F8000013F0DEFE0028D3D1FE
S2140163E0D5E90223DDE90410834208BF8A42A2D11F
S2140163F0039B002BCFD06B68012BCCD16FF08400B0
S21401640044E7102032999A420860E2D1002EE7D084
S21401641033462146D9F8000018AA13F079FE48B190
S2140164200B4B9842D5D00B4B9842D2D00A4B984290
S214016430D6D029E7329A336812689B1A3360CFE7C1
S2140164408D2E002000710800EC170020105D175EED
S214016450FFDF00F011E000F0FEDF00F0006D080045
S21401646070310020001800202DE9F04F87B08246D9
S214016470894698461646DDF840B02AB1002B4FD023
S21401648040F26C739A424ED8BBF1010F4ED80024ED
S21401649006F110073946012005941EF0B3F80546AB
S2140164A0002846D021463A4627F01DF905ABCDE92E
S2140164B0014300942B46012250464946FFF7BCFE95
S2140164C0044680B110F18C0F08BF6FF08D043A4678
S2140164D00021284627F007F928461EF075F82046C1
S2140164E007B0BDE8F08F144BC5E902A92B60C5F8CB
S2140164F004B02EB13246414605F1100027F011F9DD
S214016500059E0E483B462A463146006813F014FDA8
S21401651018B93046FFF750FED9E76FF09104D6E779
S2140165206FF08604DBE76FF09104D8E76FF085041F
S214016530D5E76FF08C04D2E7105D175E703100204E
S2140165402DE9F0438DB08146DDE914780E461546F7
S2140165501C469BB1B8F1000F05D16FF08606304698
S2140165600DB0BDE8F083002FF7D0B7F1005FF4D38C
S214016570C3F1005303F5C0339F42EED81022002129
S21401658008A827F0B0F8002207AB029305AB0193E9
S21401659006AB31460093484608ABCDE90522FFF726
S2140165A04BFE06460028DAD1059BA4B1AB4215D8AE
S2140165B053EA0504D1D1069B0B48C8F80040009465
S2140165C03A46079900682B4413F04EFD002818BF81
S2140165D06FF09106C3E7AB42EDD2BEE75B1B9C4270
S2140165E028BF1C46E7E700BF7031002030B58DB0EC
S2140165F00C4605461022002108A827F074F8002250
S21401660007AB029305AB019306AB214600932846E0
S21401661008ABCDE90522FFF70FFE0446D8B9099B62
S214016620012B1BD0079D104B2946186813F0B4FDAB
S214016630B8B90122A5F506230C49A3F550635B09F9
S21401664005F01F00824051F823004240284641F8D9
S2140166502320FFF7CDFD20460DB030BD6FF084043A
S214016660F9E76FF09104F6E770310020001800207A
S2140166702DE9F04F93B00446DDE91E75DDE920688B
S2140166809346DDE91C028A46DDF8889029B96FF049
S2140166908604204613B0BDE8F08FBBF1000FF6D09C
S2140166A00FB9002DF3D108B9002AF0D116B9B8F107
S2140166B0000FECD1B9F1000FE9D02C4A934251D129
S2140166C02388B3F5105F4DD12022002102A827F0C0
S2140166D00AF8202200210AA827F005F802A81CF0D3
S2140166E090FE10B16FF09204D3E720465A46514609
S2140166F00AAB1DF0AFF904460028CAD10A981DF06E
S2140167009DF904460028C4D115B9C9F80050C0E760
S214016710B74224D27B199E4221D24545B7D8394685
S2140167202A46304626F0C5FF374615F00F0AAED189
S214016730CDE900762B4652460AA902A8FFF700F8D3
S21401674007460028E1D042465146304626F0CBFFA8
S214016750012FC9F800A0C5D16FF08B0499E7454514
S214016760E3D994E76FF0850493E700BF0044400443
S2140167702DE9F04FB3B00C4605460021164602A897
S214016780202298463C9FDDF8009126F0ACFF20229F
S21401679000210AA826F0A7FF2022002112A826F031
S2140167A0A2FF202200211AA826F09DFF00213C22EC
S2140167B023A8229126F097FF34B12EB127B13E9B34
S2140167C013B1B9F1000F05D16FF08604204633B03E
S2140167D0BDE8F08FB4F800B0B4F802A00BF4E043C3
S2140167E0B3F5804FF0D0384B384A2B4043F0106356
S2140167F0934202D06FF08504E8E70AF10703B8EB8D
S214016800D30F4FEAD305DFD33F9B9D4258D81AA832
S2140168101CF0F7FD10B16FF09204D7E7002301A931
S2140168201AA80193FFF7E8FA0028F4D1019B284A39
S21401683023F07F4393420193DCD947F212139B4521
S214016840D8D1BAF5807FD5D1224B01370A933D9B2B
S2140168500D90023323F003030F93402317936B002D
S2140168600E971590139320464246314622AF02AB4F
S21401687016971DF0EFF804460028A7D10C9B12903E
S21401688043F400531AA80C931CF0BBFD0028C2D198
S21401689012AB0AAA02A91AA8FFF7BAF9064610B15E
S2140168A0482891D1A6E72A4639463E9826F039FF70
S2140168B03346BB550136402EFBD1C9F8005085E75B
S2140168C06FF0890482E700BF0000FFF600000209AE
S2140168D00102010020000080F8B5134642880C46EC
S2140168E00732072A4FEAD20101D0A1424DD14668AC
S2140168F00588C76820221846002126F0F4FE360ACD
S2140169000346002E44D1002C3FD041F201029542AD
S21401691005D0B5F5885F02D0B5F5905F02D15C6011
S214016920002011E0B5F5105F07D1182C03D0202CFC
S21401693001D0102C29D11C60F1E705F44F42B2F5C5
S214016940824F02D06FF08500F8BDEAB2122AF9D163
S214016950202CF7D1104A25F0FF05B5F5E24F02606D
S2140169600CD0B5F5824F10D14FF4005217F4705F7A
S21401697009D017F4864F04D09A60E3E74FF48042BB
S214016980F4E742F480629A60CAE76FF08600DBE7BC
S2140169906FF08B00D8E700BF200000802DE9F04F94
S2140169A09A460388144603F44F42B3B0B2F5824FB9
S2140169B00F46DDF8F89002D06FF0850056E011B969
S2140169C06FF0860052E0002CFAD0B9F1000FF7D034
S2140169D0DAB2122AF0D123F0FF03B3F5E24F34D135
S2140169E04388C9F800305BBBE300C9F80030B3F553
S2140169F0807FE1D10023184655493D19214411F8FD
S214016A00016D15F8012D1043921B0CBF4FF0FF3698
S214016A100026AF4203EA060343EA0203EFD1002849
S214016A20CED0002BCCDA3C9B9C4200F28E802246D4
S214016A303946504626F075FE3D9B00201C6015E049
S214016A40DA1DB4EBD20FD2D0BAE7B3F5824F79D1C3
S214016A500B78042BB4D12022002101A826F043FE96
S214016A6001A81CF0CEFC20B16FF0920033B0BDE857
S214016A70F08F0090694601A8FFF7BEF90028F3D110
S214016A80009B344A23F07F43934295D94FF0000888
S214016A903E22414622A8CDF8848026F024FE01231A
S214016AA04FF0420B2022414609A88DF88430651E1E
S214016AB026F019FE7B1C2022414611A80D9321AE1B
S214016AC00E9526F010FE2022414619A81596CDF8FF
S214016AD058B026F008FEEA005208B2F5807FCDE9EC
S214016AE01D6BC9F800200BD003D8E02A3FF464AF31
S214016AF066E7B2F5C07F3FF45FAFB2F5047FF5E716
S214016B00154B09AA099311934FF400530B934FF4B5
S214016B1080431393402311A91A9301A819ABFFF7D9
S214016B2077F8D9F800300733DB085A0033B1531E23
S214016B30013B86F8008006F10106F9D200283FF4F1
S214016B4072AF3DE76FF0960090E76FF089008DE732
S214016B50A4F3030001020100200000802DE9F04F9C
S214016B608FB0DDF8608081460C4692469B461A9FA0
S214016B70B8F1000F05D16FF0860420460FB0BDE8CE
S214016B80F08F002FF7D00028F5D02022002106A88C
S214016B9026F0A9FD06A81CF034FC10B16FF0920493
S214016BA0EBE714F47C1FC4F305452AD0102DE2D878
S214016BB0199B9D4233D81D4B24F47E149C4231D13F
S214016BC0002302AECDE90233CDE9043352465B46DB
S214016BD04946009606A8FEF70BFE044698B92A46D3
S214016BE03146404626F09DFD234633550134102C90
S214016BF0FBD100243D6006A81CF00DFC0028BCD08B
S214016C00CCE71025D4E7212806D0012814BF6FF061
S214016C1092046FF08B04EEE76FF08604EBE76FF0FB
S214016C208904AAE76FF08504A7E700BF0002C00346
S214016C3070B50E461446054610B96FF0860070BD55
S214016C400029FAD03822002126F04DFD094B24F404
S214016C507E129A420AD13388B3F5105F06D1C4F387
S214016C600543102BE9D800202C60E8E76FF085007B
S214016C70E5E700BF0002C003F0B50F4616461D4605
S214016C8004468BB088B302B97BBB2022002102A840
S214016C9026F029FD02A81CF0B4FB20B16FF0920487
S214016CA020460BB0F0BD2368114A23F47E139342AD
S214016CB015D135B9002402A81CF0ADFB0028EFD091
S214016CC0ECE733463A46009502A9201DFEF772FE10
S214016CD0012807D00028EDD06FF09204EBE76FF0A3
S214016CE08804E8E76FF08B04E5E76FF08604D7E7E2
S214016CF00002C0032DE9F0418CB0884616461D46B9
S214016D000446129F002840D0002A3ED0002B3CD0DB
S214016D10002F3AD0102B036828BF102513F47C1FD0
S214016D20C3F3054202D0954228BF15461A4A23F4FA
S214016D307E1393422CD12022002104A826F0D3FCF6
S214016D40002304A8CDE90033CDE902331CF059FB3A
S214016D5040B96B46424604A9201DFEF7A7FD30B197
S214016D6000233B606FF092000CB0BDE8F08104A8F0
S214016D701CF051FB04460028F2D12A4669463046EB
S214016D8026F0CFFC20463D60EEE76FF08600EBE78D
S214016D906FF08800E8E700BF0002C0030023C3606D
S214016DA001F13803036120230A6843618B6D0B49A7
S214016DB022F47E128A42436003D001F580718A4232
S214016DC008D1102B01D0182B02D103600020704788
S214016DD0202BFAD06FF08800704700BF0001C00377
S214016DE030B58BB06D46604C0FCC0FC554F8043BE4
S214016DF068462B604FF07E6393F89C306D46FF2B00
S214016E0008BF25238DF80130FDF7DAFF3220FEF7A3
S214016E100FF80FCC0FC50FCC0FC594E8030085E81B
S214016E200300524BD3F84C21110340F18380A3F5A4
S214016E30FE431C884FF6FF739C4208BF81248DF8E1
S214016E401940FDF78BFF044484F3080448488DF885
S214016E501840FCF711FF6846FDF7B4FE3220FDF737
S214016E60EDFF444C4448FDF75DFE4448FDF7ECFF5A
S214016E701CF0DEF9236F002023F0070343F0020322
S214016E802367236F23F4505343F4806323671CF076
S214016E90D6F93B4BD3F8FC20D2014FD4D4F880303E
S214016EA023F0030343F00203C4F88030314BD3F8D8
S214016EB0202122F0070242F00102C3F82021D3F874
S214016EC0802122F0030242F00102C3F88021D3F8A8
S214016ED0402122F0030242F00202C3F84021D3F817
S214016EE0602122F0030242F00202C3F86021D3F8C7
S214016EF0402222F0030242F00202C3F84022D3F8F5
S214016F00002222F0070242F00202C3F80022D3F860
S214016F10082222F0070242F00202C3F80822FDF717
S214016F20E1FD4FF0E0220020136963F004031361D2
S214016F300BB030BDD3F85041E4B280E7D3F8FC2063
S214016F4022F08072C3F8FC20D4F8802022F00302DD
S214016F5042F00202C4F88020D3F8FC2042F080728E
S214016F60C3F8FC20A2E700BFC4F303000080E00FD3
S214016F7000F049020080005000B4C404C0EA2101B8
S214016F8000ED00E06FF00403502110B50A480B4CE9
S214016F9013F0800F03F1010206D123443D2A83F842
S214016FA000131346F4D110BD03F00F03043B034452
S214016FB019761346ECE700BF00ED00E000E100E0C3
S214016FC0BFF34F8F0549064BCA6802F4E0621343CC
S214016FD0CB60BFF34F8F00BFFDE700BF00ED00E0C1
S214016FE00400FA0500280CDB01220649430900F0DB
S214016FF01F008240203341F82320BFF34F8FBFF399
S2140170006F8F704700E100E0002807DB012341098C
S214017010034A00F01F00834042F82130704700BF4A
S21401702000E100E0002808DB01224309034900F0E3
S2140170301F008240603341F82320704700E100E0E2
S2140170400028ACBF00F16040064B4FEA0111C9B2FF
S214017050ABBF00F5614000F00F0080F80013195433
S214017060704700BF14ED00E010B504461CF057F859
S214017070024B1C601CF057F8002010BD14180020AD
S21401708010B51CF04CF8034B1C681CF04CF820465D
S21401709010BD00BF14180020034B022218680023FD
S2140170A0806819461AF000BA7832002030B51446C6
S2140170B0054687B010461DF0A3F863690246834271
S2140170C03CBFD4E903315B181B1A7BB10F4904940A
S2140170D003910021CDE90131012300932846D4E92B
S2140170E000131CF04AF8002007B030BD012262767A
S2140170F094F82D20002AF6D084F835301321E36960
S214017100204698472046636A9847ECE7AD70010031
S2140171102DE9F04788B004460F46164698461CF0FF
S21401712005F88146002E7AD0237E03F0FF02002B5D
S21401713000F0A28020461DF063F86569A84205D1DB
S214017140637ED4E9033213445D1B01E0F9D9451B84
S214017150B54228BF35461BF0E9FF94F82D3082462C
S214017160002B6DD12A463846616926F0DAFA636942
S2140171702E462B44636121E0037803F0FD011129BB
S2140171805BD1216B814205D1A3F111014B424B41E9
S21401719084F83430013E6369216B01328B4203F17E
S2140171A0010308BF2363636195426069E4D1D4E9B2
S2140171B00323216B1344994200D122630025D4E9AD
S2140171C0032361691344994208BF6261207A657698
S2140171D0FCF7EAFF20461DF013F86369834232D1BB
S2140171E0257694F82D30E568656103B12563204660
S2140171F0636A9847214B04940393002302932369FF
S2140172002A4601930123009363682168207A1BF0C4
S214017210B4FF207AFCF7E8FF50461BF08DFF484686
S214017220C8F800601BF088FFD8F80030002B0CBFB0
S2140172301B20002008B0BDE8F08707F8013BAAE74D
S2140172402E460022B0E70123207A23760DF11E0197
S214017250FDF732F89DF81E30002BDAD00DF11F0134
S214017260207AFDF701F89DF81F100029D1D122469A
S214017270207AFFF71BFFCCE71646D0E7AD7001007A
S2140172802DE9F0410C461546064686B040220021FF
S21401729020461F4626F027FA95E8030000232A69B0
S2140172A02376EB6884E80300C4E904232A7DE360BF
S2140172B084F82C20AA7D2363012384F8343084F8D3
S2140172C035300C9B84F82D2023620D9BE7616362A9
S2140172D00E9BA3622B7A84F836306B7A84F83730AB
S2140172E02D4B346073602D4BB3602D4B33612D4BAA
S2140172F073612D4BF360FCF723FF38B12B4B98429B
S21401730004D01024204606B0BDE8F081002104F127
S2140173100800FCF79DFE07460028F2D14FF0010851
S214017320234B3362234B84F83C80B361224BF361D9
S2140173309DF8403084F8390084F83B309DF83C30A5
S214017340204684F83A30697D84F838801CF095FF31
S21401735095F90900FFF766FE95F90900FFF754FE57
S214017360164B0494CDE902732369CDE90083636863
S214017370E2682168207A1BF000FF04460028C0D18D
S21401738095F90800FFF74EFE95F90800FFF73CFE59
S2140173903046FFF769FEB5E7CB42030011710100E5
S2140173A0EF410300F541030021420300038000F092
S2140173B0C94103007B420300FB410300AD7001009D
S2140173C02DE9F0414FF001081C46574B86B0029359
S2140173D0564B0C9D0193564B174600930A46CDE932
S2140173E003882946534BFFF74BFF0646002840F01B
S2140173F09280236804222B64237985F84430A1798E
S21401740085F84610607985F84500237A85F8483076
S214017410E37985F84730A37A85F84A30637A85F8A8
S2140174204930237B85F84C30E37A85F84B30434668
S214017430FDF7B6FD43460222217AE079FDF7B0FD5D
S2140174403E7039462068FDF7D7FF1421A27B3A4BE0
S21401745003EB4210C0F8AC1594F806C061792E32E1
S21401746003EB421341EA0C415960227AE37943EA7D
S2140174700243C0F8BC3585F84D607B7E032B50D89F
S214017480DFE803F03A4D021D022385F84D30002354
S2140174900422217BE07AFDF783FD41F2AC52022102
S2140174A0A37B5B0103F1A04303F570339950217B65
S2140174B0E27A42EA014241F2B8515A501CE00127F1
S2140174C085F84D3002220023A17A607AFDF768FD27
S2140174D0A17A627AA37B42EA014241F2B4515B018E
S2140174E003F1A04303F570335A500422236803F5D1
S2140174F08053DA65002FCAD163792A6C85F8453046
S214017500A379052185F84630D36C206843F004033F
S214017510D3641BF0CCFE304606B0BDE8F0810027F0
S214017520CEE72326F7E700BFF9430300ED43030048
S2140175307D4403007144030000C0035073B500246A
S214017540684600F0F1FA0C4B00981C600B4B0C4D92
S2140175501C600C4E0C4B306018602C601DF070F8EF
S2140175602046019B3268013BDB0853802B680133C0
S2140175702B6002B070BD00BF1C1800201818002038
S2140175802018002028180020241800202DE9F04F8C
S2140175900027924687B04A1C0E4614BF0C460824A4
S2140175A099460597002B00F0B0801F60002800F078
S2140175B0AE80073020F007051BF0B8FD05AB31465D
S2140175C00290009352463B46284600F0B7FA059EC5
S2140175D0804606B130B902981BF0AEFD192007B0FF
S2140175E0BDE8F08FDFF83CB17788DBF80010FB00D0
S2140175F0C0EBC7070139272FCBF800106CD9BAF1B9
S214017600000F48D1854205F1080740D02146304693
S2140176101CF094FF04460590059B1F4438461DF058
S2140176200FF8059905F10F034A88C3F3CF03D21A61
S2140176307A80CA88BB8062B3D31A9BB201EBC202BE
S214017640FB8093808B88ED08A380BB88002231469F
S21401765038466580E38000F0E9FA237843F00103B9
S2140176602370DBF800300133CBF800302B4A029848
S2140176701368083443441360294A11688B4288BF53
S21401768013601BF059FD0020C9F80040A7E73446F7
S214017690C2E7FA80D6E7F419204603931CF0D0FF20
S2140176A008F10702D20805996280FA1DD208A28065
S2140176B0CA887AB1D200039BD01DC31A4344C3F3D0
S2140176C0CF030A44E3809380A388013FFF084F80DD
S2140176D0CB80C2E7E280F7E7BAF1010F19D106F1D4
S2140176E00803B3FBF4F204FB1233A3B12146304680
S2140176F01CF024FF04462378012243F0010331469F
S2140177002046237000F092FAB0E7222067E7212096
S21401771065E78542EAD13446EDE700BF1C18002034
S21401772018180020201800202DE9F3470446684663
S21401773000F0FAF9002C00F0C2801BF0F7FC14F8F8
S214017740085CEB0704D534F806ECBEF1000F05D152
S2140177501BF0F2FC012002B0BDE8F087DFF870C133
S21401776034F8041CDCF800800EF1010208F1010374
S214017770A4F1080692B2CCF80030002938D0A6EB66
S214017780C10393F800A0B3F806901AF0010F5F88C2
S21401779005F0020520D105BBA9EB0701012927D871
S2140177A00EF102021744BAB2CCF8008034F8025C3B
S2140177B005BB14F8085C511E6FF3000504F8085C5D
S2140177C0002589B224F8065C5980197865F3000112
S2140177D019700021D98031E055B111448AB214F8EC
S2140177E0081C6FF3410104F8081C00219980DDE7AD
S2140177F03346DBE706EBC508DDE900710F44B84503
S214017800D7D216F83560414616F001062ED014F888
S214017810086C551E6FF3000604F8086C002624F861
S214017820066C1C78ADB266F300045D801C70C3F173
S21401783007040C44C4F3CF04DC808C80214C2168FF
S21401784019B1994201D8498801B923601E4C2168B3
S21401785019B1994201D3498801B923601B490B68C4
S2140178609B1A0B601BF068FC002074E7A5EB0E0565
S214017870012DCCD8B8F80250A8F8026001352A4488
S214017880B8F8065092B2C5B108EBC501DCF8005055
S214017890013DCCF8005014F8085C6FF3000504F8BD
S2140178A0085C002524F8065C541E5C801C7865F391
S2140178B000041C700029BAD18BE72946E6E722208E
S2140178C049E700BF28180020241800201C180020B3
S2140178D0201800202DE9F84F04460D469146002A4F
